:020000040800F2
:10000000980400201952000835510008214D0008BD
:100010003D51000841510008455100084951000870
:100020004D51000851510008555100085951000820
:100030005D510008615100086551000869510008D0
:100040006D51000871510008755100087951000880
:100050007D51000881510008855100088951000830
:100060008D510008915100089551000899510008E0
:100070009D510008A1510008A5510008A951000890
:10008000AD510008B1510008B5510008B951000840
:10009000CD4D0008C1510008C5510008C9510008E4
:1000A000CD510008D1510008D5510008D9510008A0
:1000B000DD5100088D4D0008E5510008E9510008A8
:1000C000ED510008F1510008F5510008F951000800
:1000D000FD510008015200080552000809520008AD
:1000E0000D52000811520008155200082DE9F04F7A
:1000F0008DB09DF85840019205940022DDE91A95D3
:1001000000240793002308940994CDE90A23DFF81B
:100110009CC289F800402C70DCF814389DF85C60B3
:1001200013F002039DF860A00296049100F0238171
:1001300040F2965E9E4E0394DCF81838DC0603F01D
:10014000040740F1F2800023199A1370002F41D167
:100150004FF0E024A36908930997DCF8143813F4EE
:10016000AB7F06D010E000BFDCF8143813F4AB7F8F
:100170000AD1A269089B089209999B1A23F07F4330
:100180000B4483420993EED3DCF814389A0700F14C
:10019000B580DCF81438DB0600F1DA80DCF81438BE
:1001A000D90500F1C980A269089B08929B1A099A97
:1001B00023F07F4313449842099340F2D38099F887
:1001C000003032695345C5D2591C89F8001007998F
:1001D000CA54BFE74FF000084FF0E02140F204445A
:1001E0004746CDF818A0CDF86890DDF814A0DDF8EA
:1001F00010908B6908930997DCF8143813EA0E0FF6
:1002000008BFAB4606D011E000BFDCF8143813EA93
:100210000E0F0AD18D69089B0895099A5B1B23F084
:100220007F43134498420993EED85D46DCF81438B6
:10023000DA0600F1A580DCF814389B073DD4DCF821
:10024000143813F4807FDCF8143840F0A4805A0589
:1002500033D48A69089B08929B1A099A23F07F433A
:1002600013449842099340F285802B7853454ED22F
:1002700019F8033033612B7801332B708B690893A5
:100280000997DCF81438234208BFAB4605D010E0CC
:1002900000BFDCF8143823420AD18D69089B089509
:1002A000099A5B1B23F07F43134498420993EFD8CC
:1002B0005D46DCF814385B059BD5DDF818A0DDF849
:1002C00068904FF0E0220023926908920993DCF8CD
:1002D00014385A0504D400BFDCF814385B05FAD58D
:1002E000DCF8143813F4806F039B08BF03230393D7
:1002F000DCF8143823F48063CCF81438DCF81438B4
:100300009F073FF519AF03980DB0BDE8F08F019A34
:1003100008F1010312F80820DBB23261029A93421D
:1003200034BF98464FF00008A5E719064CBF0223DA
:100330000123199A137009E70622DCF81438039296
:10034000039823F48873CCF814380DB0BDE8F08F0F
:10035000DCF80038039843F00103CCF800380DB006
:10036000BDE8F08F0F230393DCF814389F073FF5A7
:10037000E3AEC8E70323039303980DB0BDE8F08F05
:10038000DCF80038DDF818A043F00103DDF86890D0
:10039000CCF8003895E706220392039823F488737B
:1003A000CCF814380DB0BDE8F08F00BF005000400D
:1003B0000058004030B5294CB4F8BE20110743D591
:1003C00094F8873003F1806303F5C0631B01DB6899
:1003D000C3F30901C1B3436C01F1030C2CF0030C0E
:1003E000016C03EB0C051944402DC1F344012CD8DA
:1003F00045644FEA5C0C002394F887205FFA83FE83
:1004000004EB02125568013355F82E504A1C63451F
:1004100020F8115002F01F01EED3B4F8BE201307EC
:1004200012D594F8873022F008029B0003F1804334
:1004300003F5B8431968A4F8BE2021F4484222F01D
:10044000F00282F440521A6030BDC3F1400C4023E8
:100450005FEA5C0C4364CED1E3E700BF00000020FC
:100460002DE9F843DFF8DC80054689461E46144630
:100470009DF82070D8F844C0E2B9BCF1000F59D003
:10048000AD5DD8F84430002D58D1002B4ED0D8F8AF
:100490004410EB1C23F003038B4228BF0B46D8F813
:1004A000402028461A4402F03F02CB1AC8E9102324
:1004B000BDE8F883624506D94046FFF77BFFD8F8D0
:1004C00044309C42F8D80023691ED8F840201A44D2
:1004D00002F03F0218F8022001339C4201F8012F7C
:1004E000F3D8AE5DD8F84430A5199D4206D9154819
:1004F000FFF760FFD8F844309D42F9D8002EC6D0EF
:10050000002FC4D0002209F1FF3901E0BA42BED069
:10051000D8F840302344134403F03F0318F8033065
:100520000132B24209F8013FF0D1B0E70548FFF7C8
:1005300041FFACE74046FFF73DFFA1E79D422E4655
:10054000D5D8DDE78001002038B50446436C11B9E9
:1005500063B1184638BD99420D46FAD92046FFF7D7
:1005600029FF636CAB42F9D3184638BDFFF722FF71
:10057000436C184638BD00BF033121F00301D0E9B8
:100580001032914228BF11460B4403F03F03511A29
:10059000C0E91031704700BFF8B507460E4E0F4D49
:1005A00084B200E030BF234632460121284603F0E2
:1005B00095FF0028F6D0402F00D0F8BD064D074C1F
:1005C00000E030BF00232A460121204603F086FFC9
:1005D0000028F6D0F8BD00BFC801002000000020B0
:1005E000F0B44FF0804201264FF000554FF6FF7CEB
:1005F0000027114B80B2DC6944F00204DC61DC6945
:100600001C6944F002041C611C6924F002041C6192
:100610000A4C0B4BA4F828C0C2F81464C2F810743A
:10062000C3F88051A085C2F80C641D6011B1092384
:10063000C2F80034F0BC70470010024000040040D3
:1006400000E100E000224FF0804C4FF000500C49D8
:100650000C4B10B4CCF80024CCF81024C1F8800165
:10066000C1F88000D969084C21F00201D961C4F8B1
:10067000002C9A6910BC22F400629A61704700BF96
:1006800000E100E000100240002001402B492C4A0C
:100690000B6870B443F012030B60136843F48033AB
:1006A000136013689903FCD55368254943F48063AC
:1006B0005360536843F4E8135360136843F0807346
:1006C00013600B689B01FCD54B681D4A23F00303A4
:1006D00043F002034B60536803F00C03082BFAD17C
:1006E0004FF0E02300204FF480166FF07F45052483
:1006F000516821F480015160D16941F40001D16158
:10070000D169116941F400011161116921F40001FD
:100710001161916941F01D0191619169D16841F0C8
:100720001D01D160D16821F01D01D160054A16601C
:10073000186198615D611C6170BC704700200240C7
:100740000010024000E100E04FF0807230B400255C
:100750004FF088344FF400304FF40071144B5A605E
:10076000D3F8042842F47F22C3F80428114AC3F8BE
:100770000C5CD3F8005CC3F8002CD3F8042CC3F84D
:10078000044CC3F8100CD3F8002C30BC22F0F0025B
:1007900042F02002C3F8002CC3F8101CD3F8042C3C
:1007A00022F0F00242F06002C3F8042C704700BF50
:1007B0000000014088848888514870B5026CD31CC1
:1007C00003F03F03C35C111D01F03F01455C03F0E2
:1007D00007064C49941CD31D04F03F0403F03F036B
:1007E00010F804C0C45C8B6902F1010E053243F4B9
:1007F00080530EF03F0E02F03F02825C10F80E00B4
:100800008B618B69CB6843F48053CB60CB6823F456
:100810008053CB60CCF3400343EAC603CCF3C00162
:10082000CCF380067600C901002838D004200B43A1
:100830003343354943F451730B604860002C53D067
:10084000012C4FEA024E52D1A1F54051D1F8103897
:1008500043F48013C1F81038002D41D0012D0CBF96
:1008600040254FF480054FF6FF744FF00060274994
:10087000D1F810382B43C1F810382449130543EA46
:100880000273D1F800282240134343EA0E030343C6
:1008900043F0004343F40003C1F8003870BD1CF07E
:1008A000100F0CBF4FF400740024334323430B4359
:1008B000154943F040030B60486014481206D0F815
:1008C00000181CF0010F89B241EA020314BF43F083
:1008D000984343F0904343F49003C0F8003870BD50
:1008E0004FF080600A4CC8E74FF4802EB4E7074908
:1008F000D1F8103843F01003C1F81038ACE700BF4E
:100900008001002000100240003001400000014042
:10091000FFFF000300200B4A10B4D2F800380A4C45
:100920009BB243F08843094943F48803C2F8003876
:10093000C2F80C0820608B6910BC23F480538B61D3
:10094000704700BF0000014000300140001002402D
:100950002DE9F043DFF800810026D8F84030DFF8B9
:10096000FCE05A1C02F03F0218F802005A1D02F087
:100970003F0218F8025000F00401002969B26FEA42
:10098000010114BF012200224FEA530404F10504BF
:100990004FEAD17104F01F0441EA45014FF02405EC
:1009A00038F814C014BF0B242524DEF81C901F1D3A
:1009B00049F4800907F03F0718F80770CEF81C903B
:1009C000DEF81C90DEF81090023349F48009CEF86E
:1009D0001090DEF8109003F03F0329F48009CEF860
:1009E000109018F803E0DFF878804FEA0E2343EA0E
:1009F0000E33D8F804ECD2032EF47F4E43EA0E03F4
:100A000043F44C43C8F8043CC0F3400342EA833249
:100A1000144B42EA0C027F00C3F8006847F4804799
:100A2000C3F80458C3F81C280207C3F82048C3F8C9
:100A30000878C3F80C1804D50122C3F80028BDE8D3
:100A4000F08340F2014200F0010042EA8010C3F856
:100A50000008BDE8F08300BF8001002000100240C4
:100A600000000140005000400F4AD3695B0219D5D5
:100A700010B400240D490E48D1F8043C23F47F4300
:100A800043F40843C1F8043CD1F8103C43F0406300
:100A9000C1F8103CC0F80048D36910BC23F48003AF
:100AA000D3617047704700BF001002400000014052
:100AB000005000406A482DE9F04F026C87B0911C4D
:100AC00001F03F01465C541CD11C01F03F0104F0D1
:100AD0003F04045D10F801805308111D053202F037
:100AE0003F020533875C03F01F03C4F3801201F05B
:100AF0003F0130F81330415C009216F0010004F021
:100B00001002C4F340150292C4F3001AC4F3C009E2
:100B1000C4F3800BC4F34002019004F0010457D0E9
:100B20005048C069C00700F19280DFF838C14E48D4
:100B3000DCF81CE05B084EF4003ECCF81CE0DCF86E
:100B40001CE0DCF810E04EF4003ECCF810E0DCF8DD
:100B500010E02EF4003ECCF810E0240244EA01310B
:100B600041EA422242EA8B22836042EACA22AB0077
:100B7000026143EA0933009A43EA482343EAC20385
:100B8000019A43F40053C3603B01CAB34FF04024C1
:100B90000921C6F34002D4F814548A40C6F38006F3
:100BA00042EA06262E43314AC4F8146443EA072376
:100BB000D2F800783F0C3F043B4343F4084343F032
:100BC0008803C2F80038C2F8101807B0BDE8F08FEB
:100BD000DFF890C02648DCF818E04EF4804ECCF8E0
:100BE00018E0DCF818E0DCF80CE04EF4804ECCF8AD
:100BF0000CE0DCF80CE02EF4804ECCF80CE0ACE716
:100C0000029A1A49A2B9D1F8042822F47F6222F08C
:100C10000F02134343F4086343F00803C1F8043898
:100C20004FF48062114BC3F8102807B0BDE8F08F75
:100C3000D1F8042822F47F6222F00F0213431F43ED
:100C400047F4086747F00807C1F80478E8E7CDE9FA
:100C50000413039200F0A6F9DDE90413039A64E794
:100C600080010020001002400044004000000140CC
:100C700000380140194B10B4984215D00024184A8E
:100C80001849D2F800381B0C1B0443F4884343F086
:100C90004403C2F80038C2F80C48C460CB6910BCE9
:100CA00023F40033CB61704700200D4A0E4CD2F87C
:100CB00004380C4923F47F6323F00F0343F4886363
:100CC00043F00403C2F80438C2F80C08C4F80C0856
:100CD0008B6910BC23F480438B617047003801405E
:100CE0000000014000100240003001402DE9F043B7
:100CF0004FF0020C4FF0010E4FF00308564E574FC5
:100D0000746824F4404444F4004474604FEA4E0490
:100D100011EA0E0F5FFA84FE0CD0ACF10205D7F891
:100D2000006808FA0CF408FA05F52C4326EA0404D6
:100D3000C7F800480CF1040CBCF1220FE6D146497B
:100D40008C6944F400748C618C69CC6844F4007440
:100D5000CC60CC6824F40074CC60002876D00021EC
:100D600002F1FF3C0C460A460F468E465D1E00EB24
:100D700080081CF8013FA1F11E06062B03FA01F9B9
:100D800084BFB3401F4315F8013F01F1050103FA89
:100D900002F398BF4EEA090E884544EA030402F1C3
:100DA0000302E6D1450345F400654FF0E02600213B
:100DB0002B4B01380005C3F834E4C3F83074C3F892
:100DC0001044C3F82C04D3F8082442F00102C3F8FD
:100DD0000824B369234AC2F88830C2F88C10B1697C
:100DE000D2F88830C2F88810D2F88C005B1A23F051
:100DF0007F430344232BC2F88C30F0D9184AD2F831
:100E0000083443F00903C2F80834D2F808341C0748
:100E100004D500BFD2F808341907FAD4104AD2F822
:100E2000083443F00503C2F80834D2F808345807F0
:100E300004D500BFD2F808345B07FAD4084B0A4A3D
:100E4000C3F80454C3F80824BDE8F08304460746F9
:100E500086464FF40065A8E70010024000000140FC
:100E6000002001408001002001001E0030B4002459
:100E70004FF6F07C1548164D164BAC60C0F8084490
:100E80005C69154A24F001045C619C69134924F4EF
:100E900000749C61D2F8000800EA0C000143C2F81B
:100EA0000018DB69DB070BD4D2F8003823F47F434A
:100EB00023F0F00343F4884343F04003C2F80038C2
:100EC000002230BC044BC3F80C28704700200140BE
:100ED00000000240001002400000014004004444B1
:100EE00070B400264FF6F07C214D224C2B6CC4F8D8
:100EF0000C68991C013303F03F02D4F80038AA5C57
:100F000001F03F01695C03EA0C03134343EA8103E8
:100F100043EA814343EA815343EA816343EA8173AD
:100F200043EA024343EA025343EA026343EA027399
:100F30001148C4F80038C369DB0716D4D4F8000898
:100F40008B0120F47F4043EA812320F0F00003432B
:100F500043EA813141EA021141EA022141EA0232C7
:100F6000FF20C4F8002870BC7047F12070BC7047A7
:100F700080010020000001400010024000204FF0DE
:100F800066314FF04432064BC3F80C08D3F8000822
:100F9000C3F80018D3F80018C3F80028704700BF42
:100FA0000000014010B44FF0804000240D4A0E496B
:100FB000D2F8003823F47F4323F0F00343F40843CE
:100FC00043F08003C2F80038D2F8103843F46023AD
:100FD000C2F810380460CB6910BC23F00103CB6168
:100FE000704700BF00000140001002404FF0404138
:100FF000054AD2F8043C23F4700343F48003C2F89A
:10100000043CC2F8101C70470000014030B54FF09E
:10101000E02E00238446DEF8180085B0009001938E
:10102000DCF800301C0611D404E000BFDCF800300E
:1010300018060BD4DEF81840009B0094019D1B1B82
:1010400023F07F432B449A420193EED8DCF8003022
:101050001B064ABF002004208CF8041005B030BDE8
:1010600030B5002300240025844685B00068009335
:101070000193CDE90245DCF8104010F0080F14BFD1
:101080000520184624050DD54FF0E02EDEF8184057
:1010900000940193DCF800309D060FD5DCF8003099
:1010A0009A0643D5DCF800309B0618D4012005B021
:1010B00030BD00BFDCF800309C06EFD4DEF81840ED
:1010C000009B0094019D1B1B23F07F432B449A42FD
:1010D0000193EED8DCF800309A06E3D426E0DCF881
:1010E0000020DCF8003012F4807FDCF8004018BFEC
:1010F0000720DCF8002013F0040F18BF0820DCF8EC
:10110000003014F0010F18BF092012F0020F18BFB1
:101110000A20DB0505D5DCF8003023F48073CCF819
:1011200000309CF804300B7005B030BD032005B0D2
:1011300030BD00BF2DE9F04F002587B0129E9A46C2
:10114000109C9DF844B0009135600192002A45D072
:10115000294680464FF0E025DFF88C9005E03168A5
:10116000019B01319942316038D2009B5246404682
:10117000595CFFF74BFF0746002830D1002CEED01A
:10118000AA6902920390A869029A0290121A03981F
:1011900022F07F4202449442039213D8DFE7D9F849
:1011A000402002F03F0219F802205A4517D0AB69DF
:1011B000029A02930398D21A22F07F420244944288
:1011C0000392CCD9D9F84420002AE8D14846FFF749
:1011D000F1F8D9F84420002AE9D0E0E700273846A2
:1011E00007B0BDE8F08F00BF800100202DE9F04F6F
:1011F000002787B0139CCDE90012DDF840B0119DA7
:101200009DF848A02760002B50D0394606469846E6
:101210004FF0E027DFF89C9004E021680131414560
:10122000216043D2009B5A463046595CFFF7EEFEE0
:10123000002838D12168019B30461944FFF710FF80
:10124000002830D1002DE8D0BB6902930390BA6921
:10125000029B02929B1A039A23F07F4313449D4200
:10126000039313D8D9E7D9F8403003F03F0319F8B6
:101270000330534516D0BA69029B029203999B1A18
:1012800023F07F430B449D420393C6D9D9F84430E1
:10129000002BE8D14846FFF78DF8D9F84430002BF1
:1012A000E9D0E0E7022007B0BDE8F08F002007B0EA
:1012B000BDE8F08F800100202DE9F04F87B00025B8
:1012C0000F4698461146002301920022119C029578
:1012D0009DF8409003952560CDE90423002955D061
:1012E000294606464FF0E0258A46DFF8A8B0AB69EC
:1012F00002930023039308E0DBF8403003F03F0340
:101300001BF803304B4538D0216800223046394461
:10131000FFF7A6FE012816D1AA69029B0292039943
:101320009B1A23F07F430B44984503931CD9DBF8A9
:101330004430002BE0D15846FFF73CF8DBF844304E
:10134000002BE1D0D8E72168019B824501F1010122
:10135000B8BF824699422160C9D38245B8BF824650
:10136000504607B0BDE8F08FBAF1010FB8BF4FF09B
:10137000010A504607B0BDE8F08FBAF1020FB8BFBE
:101380004FF0020A504607B0BDE8F08FDDF804A028
:10139000EFE700BF800100204FF0E02CF0B4002404
:1013A000DCF8185084B04C4F00950194BC68A40739
:1013B00010D403E000BFBC68A6070BD4DCF81850BB
:1013C000009C0095019E641B24F07F443444A2429B
:1013D0000194EFD8404CA468A50778D5002B51D1D3
:1013E0003D4E4FF0E02730730020BC69009401901F
:1013F000B068C40704D50EE000BFB068C0070AD4C7
:10140000BC6900980094019D001B20F07F40284497
:1014100082420190F0D84BB92F4B9A68D2072DD554
:1014200000201B7B0B7004B0F0BC70474FF0E02530
:101430000022A86900900192A869009A0090121AEF
:10144000019822F07F420244934201920BD900BFDF
:10145000A869009A0090019C121A22F07F4222444F
:1014600093420192F3D81D4AD2F8103843F010038A
:10147000C2F81038184B9A68D207D1D4032004B0B0
:10148000F0BC70474FF0E0270026144DD5F8104807
:1014900044F48014C5F81048BC6900940196BD69F5
:1014A000009C0095641B019D24F07F442C44A342C2
:1014B000019495D900BFBD69009C0095019E641BF5
:1014C00024F07F443444A3420194F3D888E70420F5
:1014D00004B0F0BC704700BF003001400000014084
:1014E000094B9A68920748BF1873074B98689A6827
:1014F00010F0400F14BF05200020D2074ABF1B7B0D
:1015000001200B70704700BF003001402DE9F04F03
:10151000002487B0139FCDE90001DDF840B0119D94
:101520009DF848A03C60002A46D021469946904646
:101530004FF0E026254C04E039680131414539601F
:101540003AD20098DDF804C0405C5B464A466144EC
:10155000FFF722FF002833D1002DEDD0B3690293AD
:101560000390B269029B02929B1A039A23F07F4375
:1015700013449D42039311D8DEE7236C03F03F032D
:10158000E35C534514D0B269029B029203999B1A03
:1015900023F07F430B449D420393CDD9636C002B12
:1015A000EBD12046FEF706FF636C002BEBD0E4E79F
:1015B000022007B0BDE8F08F002007B0BDE8F08F33
:1015C00020EAE07007B0BDE8F08F00BF8001002086
:1015D0002DE9F04F89B000269C4617460093002263
:1015E000002304960596CDE906236346129C159DBB
:1015F0001B19CDE90201DDF84CA09DF850802E604A
:10160000019359D0B3462E4C4FF0E0265B462D484F
:101610000DE0A168C90725D5217B197093452B687A
:10162000B8BF9346019A013393422B603AD2009A95
:101630009A423BD9029A12F80390B26904920022AE
:101640000592A2683B44920748BF84F80C90A268B8
:1016500012F04002DDD0A268D20703D5227B1A70B7
:101660000522DBE7B269049B04929B1A059A23F0DA
:101670007F4313449A4505930FD9436C3BB1036CE8
:1016800003F03F03C35C434507D02B68D9E7FEF75F
:1016900091FE436C002BF8D0F1E7BBF1010FB8BF0E
:1016A0004FF0010B584609B0BDE8F08F009A03993E
:1016B0009A1A11F80290C0E7DDF804B0F2E700BF13
:1016C000003001408001002040F201124FF0E02C78
:1016D000002310B4144C85B0C4F80028DCF818209E
:1016E00000920193D4F81438DA0711D404E000BF53
:1016F000D4F81438DB070BD4DCF81820009B0092D8
:1017000001999B1A23F07F430B4498420193EED832
:10171000054BD3F8143813F0010F0CBF0B20002039
:1017200005B010BC704700BF0050004070B54FF0CE
:10173000E02E00243F4E42EA41013161DEF81810EC
:1017400086B08446029120463B4D039410E0DEF8BB
:10175000184002990294039E091B21F07F413144F5
:101760008C45039108D9D5F8141811F4E06F1CD1F9
:10177000D5F814188907EAD54FF0E0218C69029951
:101780000294091B039C21F07F4121448C4598BFA2
:101790000C20012A039110D0274BD3F81428019272
:1017A000D3F81838019306B070BDD5F81418062088
:1017B00021F4E061C5F81418DAE7012B10D0022BF0
:1017C0001ED0A3B11C4BD3F8002842F48062C3F8AA
:1017D0000028D3F814280192D3F818380193E2E7CF
:1017E000154BD3F814280192D3F818380193124AF4
:1017F000D2F8003843F40073C2F8003806B070BD68
:101800000D4BD3F8002842F48062C3F80028D3F8C7
:10181000002842F40062C3F80028D3F8142801928B
:10182000D3F818280192D3F8002822F48062C3F874
:101830000028B8E700580040005000402DE9F04F64
:1018400089B08A46DDE914960021174601930022EB
:1018500000234FF0E02504910591CDE9062389F896
:1018600000103170AB69DFF8B8C204930591DCF861
:101870001838044698079DF848B09DF84C8005D468
:101880000FE000BFDCF818389A070AD5AA69049B54
:10189000049205999B1A23F07F430B449C420593C5
:1018A000EFD89F4DD5F81838990700F10581BBF1A5
:1018B000000F36D10020B8F1000F40F0AD80984AFB
:1018C000D2F8003843F40073C2F800384FF0E02536
:1018D0000023AA69924E04920593D6F80038990520
:1018E00005D40FE000BFD6F800389B050AD5AA69D9
:1018F000049B049205999B1A23F07F430B449C425E
:101900000593EFD8864BD3F800389A0502D5002806
:1019100008BF10200122824BC3F8002809B0BDE89F
:10192000F08F2046FFF7D0FE0028C8D103460246BC
:1019300001992046FFF7FAFE0028C0D199F800303F
:101940005B45B7D24FF0E02C40F2844EDCF8183003
:10195000049300230593D5F8143813EA0E0F06D02C
:1019600011E000BFD5F8143813EA0E0F0BD1DCF8E4
:101970001810049B0491059A5B1A23F07F431344CB
:101980009C420593EDD8D5F814385B0500F116811B
:10199000D5F8143813F0840F00F0188199F800304E
:1019A000D5F814185A1C89F800201AF803305D4A3B
:1019B000136199F800305B45C8D34D073FF57AAF06
:1019C0004FF0E0250023AA69DFF854C10492059383
:1019D000DCF81438590705D50FE000BFDCF81438DF
:1019E0005B070AD4AA69049B049205999B1A23F009
:1019F0007F430B449C420593EFD8494BD3F81438EE
:101A00005A0740F1E580474B1B69DBB28DF80F3078
:101A1000B8F1000F3FF453AF2046FFF755FE002802
:101A20007FF44DAF4346012220460199FFF77EFE29
:101A300000287FF444AF337898457FF647AF4FF0E6
:101A4000E02184468246364A364DA8EB0303022B3A
:101A500000F0878032DC012B66D88B690493CDF8C7
:101A600014C0D2F81438580605D512E000BFD2F8D9
:101A700014385B060DD4D1F818E0049BCDF810E0C3
:101A80000598A3EB0E0323F07F4303449C42059388
:101A9000ECD8D2F814385B0640F19C803378D5F846
:101AA00010E003F1010986F8009007F803E03378AD
:101AB0004345CAD3504609E7042000E7032B33D13E
:101AC0008B690493CDF814C0D2F814385B0705D5A0
:101AD00012E000BFD2F814385B070DD4D1F818E03B
:101AE000049BCDF810E00598A3EB0E0323F07F4391
:101AF00003449C420593ECD8D2F81438580767D5B4
:101B00003378D5F810E003F1010986F8009007F862
:101B100003E0D2F8003823F48063C2F80038C6E747
:101B200000500040005800408B690493CDF814C069
:101B3000D2F81438580605D5ABE700BFD2F81438F0
:101B40005806A6D4D1F818E0049BCDF810E005980B
:101B5000A3EB0E0323F07F4303449C420593ECD890
:101B600097E78B690493CDF814C0D2F8143858075E
:101B700005D512E000BFD2F8143858070DD4D1F8BB
:101B800018E0049BCDF810E00598A3EB0E0323F0BA
:101B90007F4303449C420593ECD8D2F814385B078A
:101BA00016D5D2F8003823F48063C2F80038D2F892
:101BB000003843F40073C2F800386FE7D5F81438E2
:101BC0000D2023F48063C5F81438F9E6032076E687
:101BD0000E2074E60F2072E62DE9F0410A4C9DF8C4
:101BE00018C0D4F814489DF81CE0A4079DF82050B4
:101BF00007D5CDE907E5CDF818C0BDE8F041FEF7FF
:101C000075BA0120BDE8F081005000402DE9F04791
:101C10000D4F1E467B6C0446894615469DF8208074
:101C20004BB133462A4649462046CDF82080BDE8D0
:101C3000F047FEF715BC3846FEF7BCFB786C002871
:101C4000EFD1BDE8F08700BF800100202DE9F04111
:101C5000002148F69F4701264FF4667E70254FF419
:101C6000E67C04244FF400401A4AD2F8043C23F4E2
:101C7000700343F42003C2F8043C174B02F50052F2
:101C8000D3F8188048F40068C3F81880D3F8188097
:101C9000D3F80C8048F40068C3F80C80D3F80C80AB
:101CA00028F40068C3F80C80A3F56443C2F8101C44
:101CB0001F85C2F8146CC2F8101CA3F82CE0C2F8FF
:101CC000185CA3F834C0C2F8204CC2F8440CBDE83C
:101CD000F08100BF0000014000100240184838B5F4
:101CE000436C012B04D8FEF765FB436C012BFAD93A
:101CF000026C144C511C01F03F01415CB9B1D4F8A5
:101D0000041C21F07F4141F0CC41C4F8041C042B99
:101D1000194628BF04214FF040450A4C0A4402F0FE
:101D20003F025B1AC4F8105CC0E9102338BDD4F838
:101D3000041C21F07F4141F00841C4F8041CE6E78F
:101D40008001002000000140134838B5436C022B8D
:101D500004D8FEF72FFB436C022BFAD9026C911CBE
:101D600002F1010C01F03F010CF03F0C445C10F853
:101D70000C1041EA0411094C256831EA050518BF29
:101D80002160042B194628BF04210A4402F03F02B7
:101D90005B1AC0E9102338BD8001002000200240FA
:101DA0002DE9F04FD14C83B0636C0B2B05D8204646
:101DB000FEF700FB636C0B2BF9D9276C0C3B6364BB
:101DC0007B08191D5A1D01F01F0102F01F0234F893
:101DD000110034F81210BA1C02F03F02A25CFE1C83
:101DE000072A8CBF0125022584F8A0503D1D05F06F
:101DF0003F05655D07F1050C0333C4F89C507D1C5D
:101E00000C3707F03F0703F01F030CF03F0C34F8CA
:101E10001330276414F80C7005F03F0506F03F06F8
:101E2000655DA65DA4F898300197002B00F02E8226
:101E3000AF4FD7F81CC005F00F0747EA02171CF098
:101E4000010F84F8A47027D06F1E022F02D9571EED
:101E5000022F21D84FF080484FF00009DFF894C2DC
:101E6000DFF88CE2DCF8007827F47F4727F0F007F2
:101E700047F4084747F08007CCF80078DCF8107882
:101E800047F46027CCF81078C8F80090DEF81C7092
:101E900027F00107CEF81C704FF00308DFF858A2B6
:101EA000964FDFF850B2AAEB0707B3EBA70F4FEA44
:101EB000A70C88BF1FFA8CF34FEA850E904F88BF9E
:101EC000A4F898C0AAEB83030EF1020CDBF800988B
:101ED00008FA0CFCC7E9333A08FA0EFE94F8A03071
:101EE0004CEA0E0C29EA0C09022BCBF8009800F002
:101EF000D381DFF8FCC1022BDCF804E02EF4404E65
:101F00004EF4004ECCF804E0DCF818E04EF4007E0D
:101F1000CCF818E0DCF818E0DCF80CE04EF4007EB9
:101F2000CCF80CE0DCF80CE02EF4007ECCF80CE0F1
:101F300000F0D1814FF0E02E4FF00008DFF8C4C16F
:101F4000DCF8083443F00103CCF80834DEF818302C
:101F50009446C4F88830C4F88C808846DEF818208F
:101F6000D4F88830C4F88820D4F88C109B1A23F059
:101F70007F430B44232BC4F88C30EFD96246DFF843
:101F800084C14146DCF8083443F00903CCF8083436
:101F9000DCF808341B0704D500BFDCF808341B0745
:101FA000FAD4DFF860C1DCF8083443F00503CCF85C
:101FB0000834DCF808345B0704D500BFDCF80834CB
:101FC0005B07FAD494F8A0C0BCF1020F00F098812E
:101FD000BCF1010FD4F89C3000F05B814FF48078A5
:101FE0004FF0000EDFF81CC1DFF81C91DFF81CB1C8
:101FF000CCF80898CCF80488CCF82CE8CCF8342835
:1020000002EB420203FA02F2CCF810284FF000086B
:10201000DFF8F0E005EB45029340DFF8D49094F848
:10202000A0A0B4F89820CEF82C84CEF83454CEF882
:102030001034D9F81430DFF8D8C043F00103C9F8E0
:102040001430344BCCF80880CCF81030D7F8CC30B2
:10205000BAF1010FCCF8143000F02F8140F6812343
:102060002B4DEA60AB60019B002B00F08A804FF49F
:102070008043204AC2F8103CD2F8083C5B0404D4E8
:1020800000BFD2F8083C5D04FAD50F23C7F8D8305A
:102090004FF4A063012EA4F8A83000F07A81022E3C
:1020A0004AD10126174A1C4DDFF848C0C2F808641F
:1020B000D2F800349B0704D400BFD2F800349B0749
:1020C000FAD5B5F84C309BB2994203D3DCF8083C02
:1020D0005B04EBD401250B4A0F49064EC2F80854A5
:1020E000D2F800349B071ED418E000BF8001002006
:1020F0000010024000000140005000209804002021
:10210000000000200020014003001E000001060026
:10211000000002404C2401400024014000BFD2F8DE
:1021200000349B07FAD5B1F84C309BB2984203D2E9
:10213000D6F8083C5B04D1D40122AF4B5A60AF4BB8
:10214000D3F8082C560400F1BC80B4F8A83043F44E
:102150000073A4F8A8304FF40043A84AC2F8103C1A
:10216000D2F8083C1D0404D400BFD2F8083C18047F
:10217000FAD5B4F8A83023F4807343F4E0539BB24B
:102180003CE00F23C7F8D8304FF4A063012EA4F829
:10219000A83000F03F81022E40F098800126984A36
:1021A000984DC2F80864D2F800349B0704D400BFED
:1021B000D2F800349B07FAD5B5F84C309BB299425F
:1021C000EFD201258E4A8F49C2F80854D2F8003464
:1021D0009E0704D400BFD2F800349B07FAD5B1F8AB
:1021E0004C309BB29842EFD30121B4F8A830824A18
:1021F00023F4807343F4E0539BB25160804AA4F807
:10220000A830814BC2F804B4C2F8083402F5604229
:102210001368990703D400BF13689B07FBD5FEF72B
:1022200025FE4FF040450120744AD7F8D410D2F86B
:10223000043C764E23F4700343F48003C2F8043C5C
:1022400094F8A03084F8AA0084F8493094F8A430B7
:1022500084F84A30C2F8105CD4F89C30B4F8982066
:1022600084F84B30B4F8A830694D84F848008A806F
:10227000CB8000E030BF082332460121284602F01F
:102280002DF90028F6D00023A4F8A83003B0BDE84B
:10229000F08F4FF4807BB9E64FEA820E0EF1020C0C
:1022A00008FA0CFC08FA0EF84CEA0808DBF800C83B
:1022B0002CEA0808CBF800881BE640F28153520054
:1022C000CEE64FF08042C3F8102C44E701224FF4D1
:1022D000E0536A6092E7DCF8183043F48063CCF88E
:1022E0001830DCF81830DCF80C3043F48063CCF89C
:1022F0000C30DCF80C3023F48063CCF80C3019E699
:10230000DFF8FCC04FF0E02EDCF808384FF0000892
:1023100043F00103CCF808389446DEF81830C4F8CE
:102320008830C4F88C80DEF81820D4F88830C4F8DF
:1023300088209B1AD4F88C2023F07F431344232B4E
:10234000C4F88C30EFD96246DFF8B4C0DCF8083846
:1023500043F00903CCF80838DCF808381B0704D52B
:1023600000BFDCF808381B07FAD4DFF894C0DCF8AB
:10237000083843F00503CCF80838DCF808385B0768
:1023800004D500BFDCF808385B07FAD494F8A0C085
:102390001EE61B4A1B4DDFF864C0C2F80864D2F881
:1023A00000349B0704D400BFD2F800349B07FAD551
:1023B000B5F84C309BB2984203D8DCF8083C5B047B
:1023C000EBD401250E4A0F480C4EC2F80854D2F83F
:1023D00000349B0704D400BFD2F800349B07FAD521
:1023E000B0F84C309BB299427FF6A6AED6F8083CC6
:1023F0005B04EAD4A0E600BF0000024000000140F8
:10240000002001400024014003015E00C8010020BB
:1024100000000020124A134DC2F80864D2F80034BC
:102420009B0704D400BFD2F800349B07FAD5B5F857
:102430004C309BB29842EFD90125094A0948C2F8AD
:102440000854D2F800349B0704D400BFD2F80034FB
:102450009E07FAD5B0F84C309BB29942EFD8C3E64C
:1024600000200140002401402DE9F04F4D4C83B085
:10247000636C0B2B05D82046FDF79CFF636C0B2B80
:10248000F9D9226C484F511C01F03F01615C47486B
:10249000C7F8D81051080D1D05F01F0534F8158038
:1024A000151D05F03F0514F805A00331D51C05F0F6
:1024B0003F0501F01F0134F8111014F80590951C28
:1024C00005F03F05665D0191551DC1690C3202F0B2
:1024D0003F020C3B05F03F0522644A0214F805B0A8
:1024E000636417D54FF0000C3149324DD1F8042CFC
:1024F00022F47F4242F40842C1F8042CD1F8102C97
:1025000042F04062C1F8102CC5F800C8C26922F43C
:102510008002C261B8F1030F38BF4FF00308CEB19B
:102520000025204802E0FDF745FF636C032BFAD934
:10253000226CD7F8DCC0C2F3830154F821100432B6
:102540004CF825100135043B02F03F02B542C4E9C6
:102550001023EBD1FFF77AFB4FF48073A4F8A83077
:10256000BAF1000F19D14FF40032114BC3F8102CFF
:10257000B9F1000F0AD04FF4804241465846C3F8E3
:10258000102C03B0BDE8F04F02F0B0BC41465846F5
:1025900003B0BDE8F04F02F019BD01210198FEF72C
:1025A0001FF8E0E78001002000000020001002403A
:1025B0000000014000500040F8B500261D481E4CA8
:1025C000456C102D04D8FDF7F5FE456C102DFAD999
:1025D00000231A46076C3A4402F03F02A15D10F84E
:1025E00002C001336145DBB214BF00260136AB42A5
:1025F0001A46F0D3EB1C23F00303AB4228BF2B4653
:102600001F4407F03F07ED1A102EC0E91075D8D906
:102610000A4C0B4AD4F8E0300A4D1A6000E030BF93
:1026200004232A460121204601F058FF0028F6D055
:10263000F8BD00BF800100207C520008000000208F
:10264000F57A01EAC801002059482DE9F843436CA6
:10265000052B04D8FDF7AEFE436C052BFAD9082BE9
:102660001D4628BF0825026C524E51084C1C0231F1
:1026700001F01F0130F811C0D6F8D8102A4404F038
:102680001F045B1B02F03F020F2930F81440436423
:10269000026406D190F8A4307F2B84BF64084FEA0F
:1026A0005C0CD6F8CC30D6F8D05003EB8404AC42A6
:1026B00028BF2C46DFF800E1404FD6F8D42004EBC9
:1026C0008C0CA7EB0E07BF106545D780A5EB030761
:1026D00028BF6546E31A9B10D0F89CE01380B0F841
:1026E000983090F8A49090F8A0C093812B1BBF1055
:1026F0009B1097805380DFF8C8802E4F80F85010D1
:1027000080F851C080F8529080F853E000E030BF6C
:102710000E2342460121384601F0E0FE0028F6D0A3
:10272000A54237D90023DFF89890DFF8888004E0CD
:10273000A5421ED0A5423B4617D954F8042BD6F823
:10274000E0100F2B03F1010741F82320F0D100E046
:1027500030BF40234A460121404601F0BFFE002819
:10276000F6D0A5424FF00003E7D81F4697B1BDE869
:10277000F883BC00124E0F4D04F0FC0400E030BFA3
:10278000234632460121284601F0A8FE0028F6D053
:10279000002FECD10A4D074C00E030BF00232A4641
:1027A0000121204601F09AFE0028F6D0BDE8F8830A
:1027B000800100200000002098040020005000202C
:1027C000C801002000222DE9F04FDFF8F4B2C9B0B3
:1027D000DBF844301F92172B2B92269215923292DF
:1027E0001A921692199206D85846FDF7E3FDDBF8C7
:1027F0004430172BF8D903228DF80521DBF840204F
:10280000183B911C01F03F011BF801409108C81CC6
:1028100000F00F005BF82000CBF844301790881CC4
:1028200000F00F005BF8200010941890481D043150
:1028300001F00F015BF8211000F00F001E91511DF7
:1028400001F03F011BF801105BF820001191511CB1
:1028500001F03F011BF801101D901C91D11C01F0EB
:102860003F011BF801100691111D01F03F011BF8FB
:102870000110183202F03F020791CBF84020002CE3
:1028800000F0D084172B08D88D48FDF793FDDBF8B6
:102890004430172BF9D9DBF84020D31D03F03F0358
:1028A0001BF80300531C03F03F031BF80330C71C45
:1028B000C3F300131A93931D03F03F031BF8033077
:1028C00092088DF80431D31C03F00F035BF823301A
:1028D000111D05323A9302F00F035BF8233001F02B
:1028E0000F015BF821203B93764B27F003073E92C4
:1028F0001F441F90FEF7DEF8DBE91032182A11465C
:1029000028BF18210B44521A03F03F033090CBF834
:102910004420CBF84030069B002B72D0DBF84430CB
:10292000172B06D86648FDF745FDDBF84430172B1A
:10293000F9D9DBF840108A1D02F03F021BF80200B3
:102940008A08013101F03F011BF80150D11C01F050
:102950000F015BF8211000F118043C91111D01F0EA
:102960000F015BF821109C423D9102F1050102F13B
:10297000020201F00F0102F00F025BF821105BF878
:1029800022202B903F91399206D94D48FDF712FD38
:10299000DBF844309C42F9D82B9BDC1C24F0030468
:1029A0003A192A9207EB44047BB13A46DBF84030EF
:1029B0001833D91B2B9BD8198B1803F03F031BF836
:1029C000033002F8013B9042F6D1FDF7F5FE2B9B58
:1029D000DBF844101B3323F003038B4228BF0B4664
:1029E000DBF840201A4402F03F02CB1ACBF8443007
:1029F000CBF84020002D00F0628401233597274654
:102A00001693079B002B00F00A84DBF844200F2A62
:102A100006D82B48FDF7CEFCDBF844200F2AF9D965
:102A2000DBF84030991D01F03F011BF80100591CF3
:102A300001F03F011BF8011000F11004C1F3C001C7
:102A400019919908033101F00F015BF821109442AC
:102A5000379103F1030103F1070301F03F0103F094
:102A60003F031BF801101BF8033026903291159399
:102A700006D91348FDF79EFCDBF844309C42F9D898
:102A80000023269A15993B70D31C23F00303CC1C1A
:102A9000FB1824F003042D931C44AAB13A46DBF83A
:102AA00040301033D91B269BD8198B1803F03F03F5
:102AB0001BF8033002F8013B9042F6D104E000BF5E
:102AC0008001002098040020FDF742FF269BDBF8E0
:102AD0004410133323F003038B4228BF0B463F20DF
:102AE00038972746DBF8402025901A440240CB1A3D
:102AF000CBF84430CBF84020119A002A00F09480A3
:102B000094464FF0000A844B02F00F021A4403EB84
:102B10001C131C7D137D55461C44E4B2E31C4FEA94
:102B2000440807EB840123F0030308F1030801EBD9
:102B3000430228F00308CB182F92219302EB48039D
:102B4000424456464FEA84091294744854462291EE
:102B5000E24631932092984402E00134082C28D0B8
:102B60004AFA04F3DA07F8D5229B5C556B1E022B58
:102B7000DBF8443098BF0126032B05D8FDF71AFC7B
:102B8000DBF84430032BF9D9043BCBF84430DBF8B5
:102B900040300134C3F383015BF82110043303F0A8
:102BA0003F03082C47F82510CBF8403005F101050C
:102BB000D6D1129C002E40F09783002C00F0B383F6
:102BC0003A464FF6FF75319BB94408F1FF30991E24
:102BD00012F8043BC3F303134A4500F8013F21F800
:102BE000025FF5D143462046229A1199FEF77EF8FE
:102BF0004B4A4FF0000AD2F808344A4843F48003A5
:102C0000C2F80834209B991E00E000BFD2F80034BF
:102C10009B07FAD5B0F84C300AF1010A544521F867
:102C2000023FF3D12E9701E0DDF844A000240022FA
:102C300000234FF0E02544944594CDE946238DF8D8
:102C40000741A969CDE94244CBF88810CBE9242398
:102C5000AB69DBF88860CBF88830F61A26F07F463F
:102C6000DBE92401321841F100031899CBE9242350
:102C70008A4217998B413BD2AB69DBF88850CBF87D
:102C80008830ED1A0AF103039F002F9B159A03EB7E
:102C90004A03023B3393214B2646DBE924014B33A5
:102CA000134436934FF4807313932E9B25F07F4586
:102CB00003EB8A032A1834930AF1FF33249341F17A
:102CC0000003BAF1000FCBE9242314BF3B460C23C9
:102CD000B0462894DBB2CDF86CA0114CDDF8ACA066
:102CE00027962996129614962393DBF84430DBB18D
:102CF000119B002B40F09C82109B002B40F09E8289
:102D0000069B002B40F0A182079B002B40F0B58270
:102D100049B0BDE8F08F00BF7C5200088001002060
:102D200000200140002401406F48FDF743FBDBF821
:102D30004490B9F1000FDBD1109B2BB11A9B1BB94A
:102D4000429B002B00F05F82069B2BB1169B1BB9A8
:102D5000439B002B00F04882079B33B1199B23B99A
:102D60009DF80731002B00F0A3803EB1DDE942233E
:102D7000134303D19DF80731002B50D01C9B5BB14E
:102D80005A4B259AD3F8083C02EA1313139A14936A
:102D90009B1A18BF01231293069B1BB1169B002B95
:102DA00040F0E381109B1BB11A9B002B40F0ED819A
:102DB000079B1BB1199B002B40F00482119B002B39
:102DC00040F02181109B002B00F01B81429B003BB7
:102DD00018BF0123069A002A00F01181439A003A95
:102DE00018BF01220799002900F007819DF80711FB
:102DF000003918BF0121129800287BD140460028D5
:102E000078D1002B76D1002A74D1002972D14FF0ED
:102E1000E0239B69002244930023CDE946234FF031
:102E2000E0229169DBF88830CBF888105B1A23F038
:102E30007F43DBE924011B18089341F10003099348
:102E4000DDE908010B46189DCBE924011799A8423A
:102E50008B41BFF44DAF9169DBF88830CBF8881017
:102E60005B1A23F07F43DBE924011B180A9341F12D
:102E700000030B93DDE90A01CBE924019269449B2D
:102E800044929B1A23F07F43DDE946011B180C9303
:102E900041F100030D93DDE90C2319461E98CDE99D
:102EA000462382421D98814134BF012600261CE73B
:102EB0000F4BD3F814389F0740F1B781DDE9370293
:102EC000159B19990293269B009101930DF583732D
:102ED00005930DF2071304930DF2051303932D9B35
:102EE000FDF704F9299040E780010020000001402F
:102EF000005000404FF0E0239B69DBF88810AB4A9C
:102F00001498C91AD2F8E070CBF8883082B221F058
:102F10007F411392DBE92423891843F100030E91CA
:102F20000F93DDE90E23CBE92423C7E900231B9B84
:102F3000B860EBB1219B249A1D1F209B981E229BF9
:102F400003EB020EC3F1040C5A1E55F8043F30F88F
:102F5000021F1B0403F47F030B430CEB020112F866
:102F6000016FC9B243EA0663964547F82130ECD1B8
:102F70002398FDF711FB109B002B40F0C680069BA9
:102F8000002B40F09380079B002B3FF440AF299B20
:102F9000159A8BF848309DF805318BF84A208BF84C
:102FA00049309DF807318BB1002A00F0D0812D9A6D
:102FB0007F49159D013A01E0A94515D012F8010F8E
:102FC00009F10109994501F8010FF5D1159A9342CC
:102FD00003F1030380F0C281764A3699134400223C
:102FE00003F8012B9942FBD1159BD81CC0B2FDF709
:102FF000D3FA00238DF8073109E70799FBE6069A13
:10300000F0E6109BE6E6D4F8083443F48003C4F8F5
:1030100008341B9B002B00F04F812F9B6649A3F1C6
:10302000020C6246339800E000BFD4F800349D07DC
:10303000FAD5B1F84C3022F8023F9042F5D1002386
:10304000CDE92BA9994620992E9A881E3199DDF851
:10305000D0A08F1E2199A1F1040E0121D6783CF851
:10306000023F957806FB03F330F8028FA940891BD5
:1030700008FB013121FA05F5A9B25678018037F82D
:10308000023F0432CD1A0023002DB8BF6D42B54275
:1030900084BF39804FF0010992454EF8043FDCD1DE
:1030A000C846DDF8ACA0DDF8B0908BE6279B8BF826
:1030B00048A08BF84930439B8BB1BAF1000F00F068
:1030C00042812A9900223D48013901E0524514D03D
:1030D00011F8015F01329A4200F8015FF6D15345C1
:1030E00003F1020380F03C810021324A1344023292
:1030F000524403F8011B9A42FBD10AF10200C0B20C
:10310000FDF74AFA002343933DE7289B1F9A8BF86B
:103110004930429B8BF8482083B1002A00F015818A
:103120000022274825491F9E01E0B24215D010F821
:10313000015B01329A4201F8015FF6D11F98834288
:1031400003F1020380F00E8100211A4A1344023277
:10315000024403F8011B9A42FBD11F9B981CC0B28A
:10316000FDF71AFA0023429309E73D9B524601936B
:10317000399B2A9900930523029343AB0393359817
:103180003C9BFEF7C3F927900CE63B9B30980193DC
:103190003A9B0B4A00930523029342AB039341A948
:1031A0000123FEF723F8289002E600BF000000206C
:1031B000CA010020C801002000240140C9010020EC
:1031C00098040020159B2D9A0193269BDDE9370179
:1031D00000930DF2071303930DF583730293329B53
:1031E000FEF72CFB2990E9E53F9B169901930523F7
:1031F000029343AB03932A9A534635980091FEF706
:10320000E7F92790A8E50523009342AB01931F9AA5
:103210003E9B30985449FEF74FF8289094E5FF23E1
:10322000259369E4504FFFF776BB012329939CE572
:10323000FDF71CFE109B002B3FF462AD3098FDF7AC
:1032400019FD069B002B3FF45FAD0020474A484C18
:10325000D2F8003847499BB243F0884343F48803CF
:10326000C2F80038C2F80C0820608B6923F4805340
:103270008B61079B002B3FF44BAD3E4BDA6952024A
:103280007FF546AD002439493B48D1F8042C22F49F
:103290007F4242F40842C1F8042CD1F8102C42F0CD
:1032A0004062C1F8102CC0F80048DA6922F48002AC
:1032B000DA6149B0BDE8F08F1B9B984682E52C4B44
:1032C0009A68910744BF3A781A73294A93689368B9
:1032D00013F001033DD0137B2A9A35971370002316
:1032E00027461693FFF78DBB4FF0804000251F4AFD
:1032F0002049D2F8003823F47F4323F0F00343F44D
:10330000084343F08003C2F80038D2F8103843F481
:103310006023C2F810380560CB6923F00103CB614C
:10332000002C7FF44DAC4346229A204611992E97EB
:10333000FDF7DCFC114AA246D2F8083443F48003BE
:10334000C2F8083472E40220DAE6022008E703201B
:103350004DE6359716932746FFF753BBD8B246E69E
:10336000D8B2CDE6D8B2FBE69804002000000140B8
:103370000030014000100240005000400020014099
:10338000754870B5436C172B04D8FDF713F8436CE0
:10339000172BFAD9026C183B511C01F03F01415C1C
:1033A00002F1180404F03F04002900F0B6804FF049
:1033B000804C00266949CD6945F00105CD61CD6994
:1033C0000D6945F001050D610D6925F001050D61DF
:1033D00051088D1D05F01F0530F81550ACF8285028
:1033E000CD1DCCF8106005F01F0530F81550ACF875
:1033F0002C5001F1080505F01F0530F81550ACF808
:10340000385001F1090505F01F0530F815500A3153
:10341000ACF83C5001F01F0130F81110151DACF84C
:103420004010D11C01F03F01415C05F03F05455DB6
:1034300001F0070105F00705090141EA0531951C76
:1034400005F03F05455D05F007052D03CCF8185044
:1034500002F10A05CCF81C1005F03F05455D02F1AC
:10346000080101F03F0110F801C02E0302F109012B
:10347000551D01F03F0105F03F05415C455D4FEAF8
:103480000C1C0902002D45D0012D2AD04FF0400C14
:10349000951D05F03F05455D5DB3012D34D141F427
:1034A0004061073202F03F02825C52B3012A2ED102
:1034B00046F44045C0E9104301224FF0804341F2F9
:1034C000101427481C621A60D0F8003823F47F4398
:1034D00023F0F00343EA0C030B432B43C0F80038FE
:1034E00070BD951D05F03F05455D4CF0C00C002DED
:1034F000D3D1073202F03F02825C41F40061002A1E
:10350000D4D146F40045D5E74FF48061C9E74FF4C4
:103510008045CFE74CF0800CBAE704644FF080445C
:103520000F4A4364D2F800380C4823F47F4323F059
:10353000F00343F4084343F08003C2F80038D2F8A4
:10354000103843F46023C2F810382160C36923F0B7
:103550000103C36170BD00BF800100200010024064
:10356000000001402DE9F04F794C95B0636C172BAA
:1035700005D82046FCF71EFF636C172BF9D9226C87
:10358000063202F03F0214F8029009F118059D423C
:1035900005D96F48FCF70EFF636C9D42FAD8FDF722
:1035A0000BF9002600230022206C0C96851C05F0E8
:1035B0003F05655D0D9605F0200504958508CDE96C
:1035C0000E2310961196CDE91223AB1C03F00F03C6
:1035D00054F823302F1D0893EB1C03F00F0354F80D
:1035E0002330053507F00F0705F00F0554F8277055
:1035F000079354F8253057490997069309F10307B3
:10360000431C03F03F0327F0030714F803800F4423
:10361000B9F1000F0CD00B4600F118054944ED1A22
:10362000EA1802F03F02A25C03F8012B8B42F7D1AB
:10363000626C09F11B0323F00303934228BF134676
:103640003D461844DFF808A1D31A00F03F003E467B
:10365000C4E9100347460AF14A0BA846CDF8149076
:103660006BB33E2301220093294600230DF12B006A
:10367000FCF7F6FE20B19DF82B30002B52D01D44F4
:1036800000230B932FBB069B0BAA0193059BA5EB75
:10369000060900930523039202935A464B4630468F
:1036A0002C49FDF795FF012833D00B9A12B1049BEA
:1036B0001BB31644B5421DD9636C002BD1D15046C3
:1036C000FCF778FE636C002BCBD100230B93002F0B
:1036D000D9D0AE420ED00293099BAA1B0193089B3E
:1036E000304600930BAB03931B49079BFDF70EFF7E
:1036F0000B9ADBE745464646DEE7D2B284F848201F
:10370000023284F84900D0B2FCF746FF0B9B1E44FE
:10371000D0E7059B0B9A03EB090090428CBF002079
:103720000120C3E70D490E4CD1F800280D4892B294
:1037300042F0884242F48802C1F80028C1F80C38EF
:103740002360836923F48053836115B0BDE8F08F53
:103750008001002098040020CA01002000000140E0
:1037600000300140001002402DE9F04F784C8BB042
:10377000636C0F2B05D82046FCF71CFE636C0F2BE7
:10378000F9D9226C063202F03F02A25C02F1100568
:103790009D42079205D96E48FCF70CFE636C9D4272
:1037A000FAD8FDF7D5F80320216C8DF821004A1CCA
:1037B0008B0802F03F0214F80290034403F00F0359
:1037C00054F823B009F0080306930B1803F03F03E5
:1037D00014F803A0079B002B00F0B8805D4D079AFA
:1037E0002B4601F110001544C01AC21802F03F0226
:1037F000A25C03F8012BAB42F7D1079B133323F0F4
:103800000303626C0025934228BF1346524E1944AD
:1038100001F03F01D31A3746A846C4E91013DFF878
:103820003091002B48D04FF03E0C0223032231464A
:1038300009A8CDF800C0FCF713FE88B19DF825500B
:103840009DF826309DF824A055EA030261D03C2B58
:10385000984628BF4FF03C083C2D28BF3C251E440D
:10386000069B93B358EA050323D0CDE900850025D4
:103870000DF123060DF12200CDE90206364E394640
:10388000A846374653465846344AFDF7D7FF9DF8B9
:10389000223084F848009DF8230084F84A309DF8CF
:1038A000213084F84B000430C0B284F84930FCF772
:1038B00073FE636C002BB6D14846FCF77BFD636C4E
:1038C000002BB0D1069B002BCCD1254BD3F814385C
:1038D0009A07EED5079B39460193F31BDBB20093A1
:1038E0000DF1220305930DF1230304930DF1210340
:1038F00003935846194B174A0295FCF7F7FB01282A
:10390000D7D09DF822301F44BE429CBF124E37468E
:10391000BFE71449CB695B0215D51348104CD0F8AA
:10392000043C23F47F4343F40843C0F8043CD0F83C
:10393000103C43F04063C0F8103CC4F80028CB6949
:1039400023F48003CB610BB0BDE8F08F102358E760
:103950008001002098040020A8040020CC01002051
:103960000050004000100240000001402DE9F04FDF
:103970006B4C97B0636C172B05D82046FCF71AFDEB
:10398000636C172BF9D9FDF795F8D4E91023182BA0
:103990009E4628BF4FF0180E00274FF000084FF04A
:1039A0000009511C01F03F01615C8246079102EB66
:1039B0000E009108073202F03F0200F03F00206441
:1039C000A05CCA1C02F00F0201F1050C0490043146
:1039D00054F822000CF00F0C079A01F00F01514D22
:1039E00054F82CC0089054F821000E97A3EB0E0356
:1039F0000F97CDE9108912971397CDE9148902F03A
:103A0000400902F0200802F010022F46DFF810B142
:103A1000CDF824C0636406900592002B41D03E236C
:103A200001220093294600230DF12F00FCF718FD19
:103A300020B19DF82F30002B6BD01D4400210C913C
:103A4000B9F1000F38D0AF424FD2079B0D9103F070
:103A500030003028A5EB07024BD0099B0191009361
:103A60000DAB02933946089B5046FDF763FB0646B3
:103A70000D9B1F44BD429CBF2A4D2F46B8F1000F3D
:103A800001D0059BDBB10C9840B1C0B284F848006E
:103A90000230C0B284F84960FCF77EFD636C002BF5
:103AA000BDD15846FCF786FC636C002BB7D10021D2
:103AB0000C91B9F1000FC6D1B8F1000FEED0002380
:103AC00000930CAB01935046069B049A1649FDF7F0
:103AD000F3FB022806461CD0012E0C98D4D1049B7F
:103AE00083428CBF00260126CEE7B8F1000FC8D173
:103AF000D4E71346099A02910192089A3946009236
:103B00000CAA03925046084AFDF770FB0C9B064630
:103B1000AFE7504617B0BDE8F04FFDF7ABB800BFB8
:103B20008001002098040020CA0100202DE9F04FF8
:103B3000464C87B0636C072B05D82046FCF73AFC4F
:103B4000636C072BF9D9236CDFF804919B080133D0
:103B500003F00F0354F82370FDF7C2F9D4F844C002
:103B600000266246082A28BF0822B7F1000A18BFBB
:103B70004FF0010A4D464FF03E08236CDFF8CCB001
:103B8000134403F03F03ACEB0202C4E9103203908C
:103B9000002A3ED0002301224946CDF800800DF1D5
:103BA0001700FCF75DFC00283CD09DF81730002B77
:103BB0003AD0626C994486B14FF0E0239969D4F809
:103BC0008830C4F888105B1AD4F88C1023F07F4337
:103BD0000B449F42C4F88C30DAD24D4520D015F802
:103BE000013B0399A94503EA010308BFDFF8609090
:103BF000184908BF4D46C1F80C383FB14FF0E021DD
:103C000000238969C4F88810C4F88C305646002A0D
:103C1000C0D15846FCF7CEFB626C002ACBD0B9E786
:103C20000026B5E7626CC6E74FF066304FF04431CE
:103C3000084AC2F80C38D2F80038C2F80008D2F8A6
:103C40000038C2F8001807B0BDE8F08F80010020EE
:103C500098040020000001402DE9F04FDFF8908229
:103C60008DB0D8F84430132B06D84046FCF7A2FBA1
:103C7000D8F84430132BF8D94FF0804100209D4AEA
:103C8000D2F8003823F47F4323F0F00343F40843D1
:103C900043F08003C2F80038D2F8103843F46023B0
:103CA000C2F8103802F588320860D36923F00103A6
:103CB000D361FDF715F9D8F84030D8F844009A08D8
:103CC000911C01F00F0158F821B0591D142801F082
:103CD0003F0118F90160014628BF14219C1D04F022
:103CE0003F0418F80490DC1D04F03F0418F8045059
:103CF000D41C043202F00F0258F8222004F00F0402
:103D000001925A1802F03F0258F82440C8F84020A7
:103D10001A1D0333401A02F03F0203F03F030094E0
:103D200018F80270002ECCBF4C462C4618F8033011
:103D3000C8F84400BBF1000F25D14FF40052A8F899
:103D4000A820DBB96B4984EA5402631C7FB1DCB262
:103D50003444AC42C1F80C280EDC4C45A8BFE4B298
:103D6000F1DA2C4684EA5402631C002FEFD1C1F82B
:103D70000C483444AC42F0DD4C46E4E701210098A5
:103D8000FCF72EFCDEE702234FF0E02A88F8AA3089
:103D9000DAF81830002208930023CDE90A23DAF874
:103DA0001820089B0892A3EB020C2CF07F4CDDE955
:103DB0000A011CEB000241F100030099CDE90A233E
:103DC0008A4201998B4144D2CDE90479049BB146E2
:103DD0004748002B00F0838084EA54030134E4B2A6
:103DE000444A4C44A542C2F80C387EDB059B9C42F9
:103DF000A8BFE4B200DA2C460023DAF81820C8F88D
:103E00008820C8F88C30DAF81820D8F88830C8F83C
:103E10008820D8F88C109B1A23F07F430B449B45D5
:103E2000C8F88C303FD9DAF81820089B0892A3EB29
:103E3000020C2CF07F4CDDE90A23D8F844101CEB6F
:103E4000020643F10007CDE90A6729B3032388F886
:103E5000AA3000204FF066314FF04432254B98F8DD
:103E6000AA40254D88F84840C3F80C08D3F800084C
:103E7000C3F80018D3F80018204CC3F8002800E05D
:103E800030BF01232A462046194600F027FB0028B0
:103E9000F6D00DB0BDE8F08FFCF78CFAD8F84430BE
:103EA000002BB0D0D2E7DAF8183008990893C91A75
:103EB00021F07F41DDE90A23891843F10003DDF891
:103EC00000C002910393DDE90223CDE90A23624594
:103ED000019A9341BDD2049B002B7FF47DAF054B2B
:103EE000C3F80C484C44A54280DA059C84E700BF27
:103EF0008001002000000140C801002000000020D7
:103F0000134838B5D0E91024042C254628BF0425D1
:103F1000182103462A4403F8481F641B02F03F019E
:103F20000C4AC0E91014603012F8021F03F8011F98
:103F30008342F9D1084D094C00E030BF19232A46CD
:103F40000121204600F0CAFA0028F6D038BD00BF93
:103F500080010020E8000020C801002000000020AF
:103F60002DE9F041274C4FF40035D4E910310429F4
:103F70000A4628BF04224FF0E026134403F03F0313
:103F80008A1AC4E91032DFF88080204F0023C8F875
:103F9000105CB169DFF878C0C4F88810C4F88C30C0
:103FA000B169D4F88830C4F88810D4F88C005B1A52
:103FB00023F07F4303446345C4F88C30F0D30221DF
:103FC0000023C8F8101CB169C4F88810C4F88C30FC
:103FD000B169D4F88830C4F88810D4F88C005B1A22
:103FE00023F07F430344BB42C4F88C30F0D90AB1BC
:103FF000BDE8F0810348FCF7DDF9626C002AC5D00A
:10400000F6E700BF80010020000001403F54890016
:10401000C0FC9B018F4830B5D0F8F03087B0B3F1C9
:10402000204FC3F303612CBF2722002209298CBF34
:104030002724002430310C44C3F3035109298CBFD9
:104040002725002501F1300CC3F3034109298DF820
:10405000014001F1300405EB0C018CBF2725002540
:104060008DF80210C3F30331092901F1300C05EB7F
:1040700004018CBF272500258DF80310C3F303210D
:10408000092901F1300405EB0C018CBF272500251F
:104090008DF80410C3F30311092902EB137203F026
:1040A0000F032C448CBF27250025092B8DF80540D4
:1040B0008CBF27240024303130332944234430324C
:1040C0008DF806108DF800208DF80730D0F8EC3010
:1040D000B3F1204FC3F3036C2CBF27210021BCF1A7
:1040E000090F8CBF272500250CF13004C3F3035CB6
:1040F000BCF1090F0CF1300E05EB040C8CBF27242A
:10410000002401EB137130318DF80810C3F3034123
:104110000929A6448CBF272400248DF809C001F189
:10412000300CC3F3033109298DF80AE001F1300E98
:1041300004EB0C018CBF272400248DF80B10C3F373
:104140000321092901F1300C04EB0E018CBF272457
:1041500000248DF80C10C3F30311092903F00F0399
:104160008CBF27250025092BA4448CBF27240024BD
:1041700030313033294423448DF80DC08DF80E10B2
:104180008DF80F30B0F8EA30C3F3033109298CBF42
:104190002724002430310C44C3F3032109298DF86E
:1041A00010408CBF2724002401F1300CC3F303110D
:1041B000092903F00F038CBF27250025092BA444F0
:1041C0008CBF2724002430313033234429448DF818
:1041D00011C08DF812108DF81330B0F8E830C3F329
:1041E00003310929C3F303208CBF272400240928A5
:1041F0008CBF27250025C3F3031EBEF1090F03F072
:104200000F0300F13000284401F130018CBF272555
:104210000025092B21448CBF2724002403F1300CF6
:104220000EF1300E0C4BAE44A4448DF815008DF801
:10423000141003F1300069468DF816E08DF817C0B0
:1042400001E011F8012F23F8022F8342F9D107B0C2
:1042500030BD00BF00F7FF1FE80000202DE9F0414E
:10426000794B7A4CDB7901469AB23E2A8281C2812F
:10427000A0F8A420A0F8B020636040F2DF801F33D4
:1042800023F01F03203B5B0143F40043E3606F48CE
:1042900002F1030CC368C068C3F38423060446BF5D
:1042A0005B0120335B00033323F00303C3F500738A
:1042B0009BB22CF0030C6548A3EB0C0C1FFA8CFC92
:1042C00003815A004FEA4C0302F1804203F180431C
:1042D0005F4C02F5C04203F5C0434A60C1F8B42008
:1042E000A0F800C08B60A3782344A34266D922467D
:1042F00018E0634564D24FEA4C05D77803F1804655
:1043000005F180450B4406F5C04605F5C0451F6123
:10431000D881A6F800C09D6013781A44A37823447E
:104320009A424BD25378052BF6D153791079957870
:1043300000EB032015F00F0680B241D08F1997F8DB
:1043400084302BB991F8C63003F1010E81F8C6E034
:10435000082B35D000F1030E2EF0030E01EB0308FD
:10436000ACEB0E0C2D0687F884301FFA8CFC4FEA5C
:10437000031388F89460BCD403F180463E2806F508
:10438000C0464DD8451CC5F34E05AD02F5606345EA
:10439000F568F56814D24FEA4C05D77805F18045E9
:1043A0000B4405F5C0451F619881A6F808C05D6003
:1043B00013781A44A37823449A42B3D3012000E02F
:1043C00000204FF40444234BD3F8442C22F4FE4243
:1043D000C3F8442CC3F8404C91F8C630BBB100255B
:1043E00048F280062A461C4F930003F1804303F5F0
:1043F000B8431C680A4492F894203C40224332435C
:104400001A6091F8C6300135EAB29342ECD88024A4
:104410000123104AC2F84C4CC1F8B830BDE8F08115
:10442000B0F5007FB3D800F11F05ADB225F01F0530
:10443000203D6D0145F40045F560A8E70133C3F365
:1044400046039B02E36022E71C5300080060004023
:104450001C010020005000408087FFFF70B5B0F8BD
:10446000BE60054646FA01F010F0010035D06B1829
:1044700093F884E00EF1806303F5C0631B01D868F4
:1044800005EB0E139C89C0F30900A04228BF20460B
:1044900000F1010CCCF34E045B684CB103EB840CCF
:1044A00053F8044B9C4522F8024BF9D1B5F8BE6095
:1044B00001224FEA8E0303F1804303F5B84302FA69
:1044C00001F11A6826EA010622F4484222F0F002BD
:1044D00082F44052A5F8BE601A6070BDF0B5B0F825
:1044E000C06046FA01F414F001042ED08646084458
:1044F00090F8847003F1010C0EEB07105FEA6C0C6E
:10450000846807D002EB4C0C32F8025B624544F839
:10451000045BF9D1012007F1806202F5C062BF009F
:104520001201536007F1804303F5B8431A6800FA9B
:1045300001F122F4784222F0C00282F0300226EA31
:1045400001011A60AEF8C010F0BD2046F0BD00BFFA
:104550002DE9F043002343F210244FF00112504D97
:104560005049A5F85030C1F8004C90F8C640A0F86A
:10457000BE30012CC0F8C02046D9012343F22007E9
:104580009E46494E12E0BCF80C509A0055B149EADB
:10459000010102F1804241F4405102F5B84211603C
:1045A00090F8C6400133DBB29C422DD900EB031CCE
:1045B000C118DCF8108091F89490BCF80E5006EB0E
:1045C000C8089A00D8F8041002F180420EFA09F8DF
:1045D000002DD8D0B0F8C250BCF80C4048EA05080D
:1045E00049EA010141EA07051FFA88F802F5B842D5
:1045F00041F020015CB3156090F8C6400133DBB296
:104600009C42A0F8C280D1D8D0F8B830033B012B2F
:1046100023D9BCB1002448F280062246234D9300E2
:1046200003F1804303F5B8431968024492F89420DB
:1046300029400A4332431A6090F8C6300134E2B28E
:104640009342ECD80223C0F8B830BDE8F083116083
:1046500090F8C640A0F8C280A4E7BCB1002448F29C
:1046600080062246114D930003F1804303F5B843C1
:104670001968024492F8942029400A4332431A6090
:1046800090F8C6300134E2B29342ECD88022054B58
:10469000C3F84C2C0223C0F8B830BDE8F08300BF4B
:1046A000005C004000500040A05200088087FFFFDF
:1046B00010B5D0F8B420044653780A2B0DD00B2B3C
:1046C00009D1137980F8C83000F028FB00230120BD
:1046D000C4F8A03010BD002010BD012300F1C802B5
:1046E000C0F89C201846C4F8A03010BDD0F8B42003
:1046F0000346507910B4022811D0032826D001288F
:1047000019D01B4A0020D2F8003C10BC23F44843C7
:1047100023F0F00383F01003C2F8003C704700213F
:104720009289144C0120C3F89C40A3F8A02010BC2F
:10473000A3F8A210704700210F4A1478C3F89C20F8
:10474000A3F8A040A3F8A21010BC7047002192F873
:1047500004C00A4A012052F82C2010BC92F800C074
:10476000C3F89C20A3F8A0C0A3F8A210704700BF14
:10477000005000401C0100201C530008680100206C
:1047800010B5D0F8B42004465378092B06D8DFE8DA
:1047900003F018050505051F24052807002010BD96
:1047A00004231179B0F8C22080F8C710A0F8C02007
:1047B000C0F8B83000F0B0FA00230120C4F8A030EF
:1047C00010BD022300F1BC02C4E92723012010BD63
:1047D0001379012084F8C93010BDBDE81040FFF7FF
:1047E00085BF012300F1C702C0F89C201846C4F819
:1047F000A03010BD38B5D0F8B420137813F01F04E2
:1048000013D0012C01D0002038BD537805460A2B67
:104810000FD00B2BF7D1137980F8C83000F07EFA57
:1048200000232046C5F8A03038BDBDE83840FFF76A
:10483000A7BF00F1C803C5E92734204638BD00BF33
:1048400030B5B0F8AC10B0F8AE40A14240D0B0F8EE
:10485000B0300A1B1FFA82FE9E4528BF9E46D0F844
:10486000A8200EF1010C5FEA6C0C436822440BD0C7
:1048700003EB8C0C53F8041B634522F8021BF9D19F
:10488000B0F8AE40B0F8AC100025174A0EEB0403A8
:104890009BB2164CA0F8AE305560D4F8002C8B4279
:1048A00022F4484222F0C00282F4405282F03002E8
:1048B000C4F8002CA0F8C4500AD0D4F8003C23F46B
:1048C000484323F0F00383F48053C4F8003C30BD28
:1048D000064AD2F8003C23F4484323F0F00383F463
:1048E0004053C2F8003C30BD006000400050004022
:1048F00010B5B0F8A020B0F8A2E0B0F8A430A2EB58
:104900000E0292B29A4228BF1A46A0F8C42002B3FF
:10491000D0F89C3002F1010C73444FEA6C0C8168B2
:1049200003EB4C0C33F8024B9C4541F8044BF9D196
:10493000144B15499644A0F8A2E05A60D1F8003C07
:1049400023F4784323F0C00383F03003C1F8003C24
:1049500010BD0C4B0C495A60D1F8003C23F478434D
:1049600023F0C00383F03003C1F8003CD1F8003CD1
:1049700023F4484323F0F00383F44053C1F8003C90
:1049800010BD00BF006000400050004038B5D0F8B6
:10499000B4200446137813F060051DD0204600F0C3
:1049A00087F92046FFF7A4FFA3893E2B06D80133E1
:1049B0001E4AC3F34E039B02D36038BDB3F5007F9C
:1049C000FBD81F339BB223F01F03203B174A5B0128
:1049D00043F40043D36038BD13F01F0315D0012BFF
:1049E000DCD151780A291CD00B29D7D1137980F852
:1049F000C83000F093F9D4F8B430C4F8A0501B7854
:104A000003F06003202BCCD1C8E7FFF7B9FED4F840
:104A1000B4301B7803F06003202BBFD00028C0D136
:104A2000BCE700F1C802C0E92723BAE700600040F4
:104A300030B590F8C950FF2D1AD1B0F8A220B0F8C7
:104A4000A0309A4210D1B0F8C4306BB91E4AD2F8E7
:104A5000003C23F4784323F0C00383F4805383F0B5
:104A60001003C2F8003C30BDBDE83040FFF740BF46
:104A700090F8C630DBB14FF0000C48F2800E624671
:104A8000124C930003F1804303F5B84319680244C4
:104A900092F8942021400A4342EA0E021A6090F8EC
:104AA000C6300CF1010C5FFA8CF29342E9D8032274
:104AB000FF23054945F08005C1F84C5CC0F8B820DB
:104AC00080F8C930B9E700BF005000408087FFFF81
:104AD0003D4A70B5D2F8443C044613F00F032ED182
:104AE00048F28003D2F8005CD2F8006CD2F8001CC7
:104AF0001942D2F8003C58D01B040BD5D2F8003C28
:104B0000360523F4784323F07003C2F8003C57D5F0
:104B1000FFF73CFF2D0604D42B4BD3F8003C1806BE
:104B200042D5294A2046BDE87040D2F8003C23F423
:104B3000F14323F07003C2F8003CFFF779BF23492B
:104B4000C21851F8231092F894E0090414D54FF0DC
:104B5000010C9A0002F1804202F5B842B0F8BE1092
:104B600010680CFA0EFC20F4784020F070004CEA3B
:104B7000010CA4F8BEC01060144A52F8232012069B
:104B800012D501219B0003F1804303F5B8431A6855
:104B9000B4F8C00022F4F14201FA0EF122F07002E2
:104BA0000143A4F8C0101A6070BD23F4784323F0C9
:104BB000C00383F4805383F01003C2F8003C70BD3F
:104BC000FFF73EFEA6E700BF00500040005C00403B
:104BD00038B50E4B0446D3F8443C590513D40B4D5D
:104BE000D5F8443C1A0406D52046FFF771FFD5F8E6
:104BF000443C1B04F8D4054AD2F8443C23F4FE4359
:104C0000C2F8443C38BDFFF7A3FCE8E70050004081
:104C100001335B1007D001EB430031F8023B8142C6
:104C200042F8043BF9D1704701335B1007D001EB28
:104C3000430052F8043B21F8023B8142F9D170470E
:104C400090F8C63070B5E3B14FF0000E48F2800521
:104C50007246114E930003F1804303F5B8431C687C
:104C6000024492F8942004EA060C42EA0C022A4319
:104C70001A6090F8C6300EF1010E5FFA8EF2934280
:104C8000E8D8FF2907D00323044A41F08001C2F885
:104C90004C1CC0F8B83070BD8087FFFF005000404A
:104CA0004322024B9A70FFF7D9BA00BF1C010020C3
:104CB000D0F8B4200346117801F07F00212816D1E6
:104CC00010B45278212A14D9222A14D10022144671
:104CD00011F0800F4FF001004FF000010ED1C3F82A
:104CE000A840A3F8AC2010BCA3F8AE107047002079
:104CF00070471F2A0AD8002010BC7047C3F89C4098
:104D0000A3F8A02010BCA3F8A21070470822014C01
:104D1000DEE700BF60010020704700BF704700BFA2
:104D200000B540F22820C2F20000018811F4807F13
:104D30001EBF05F0FF052943018040F2D000C2F2FA
:104D4000000011F4805F18BF026011F4885F11D178
:104D50004EF21000CEF2000041F20001C4F2010157
:104D6000836813F4000F0CBF4FF000534FF400534F
:104D70000B61F5E7FBF766FC40F22C23C2F200035F
:104D80005B6A07930120019000BD00BF00B540F2AF
:104D90002820C2F20000018811F4807F1EBF05F0B8
:104DA000FF052943018040F2D000C2F2000011F457
:104DB000805F18BF0260FBF745FC40F22C23C2F273
:104DC00000035B6A07930220019000BD00B540F22A
:104DD0002820C2F20000018811F4807F1EBF05F078
:104DE000FF052943018040F2D000C2F2000011F417
:104DF000805F18BF026002B440F20000C2F20000FF
:104E0000FFF7E6FE02BC11F4445F08BF00BDFBF7EC
:104E100019FC40F22C23C2F200035B6A07930320C3
:104E2000019000BD03E053F8047B45F8047BA342E6
:104E3000F9DBF74645F20006C2F20006A6EB0507CD
:104E40008900B942C8BF3946721A40F2CC06C2F294
:104E50000006326040F2D006C2F200063260F74629
:104E600042F6004BC4F2010B40F29849C2F200092D
:104E70004D4640F2282AC2F2000AF046002808BF38
:104E8000FFF7D0FF40F2D806C2F200063768002FC5
:104E900001BF45F27C03C0F6000345F2E004C0F612
:104EA0000004012F01BF45F2E003C0F6000345F204
:104EB0000414C0F60004022F01BF45F20413C0F62B
:104EC000000345F21814C0F60004032F01BF45F299
:104ED0001813C0F6000345F23414C0F6000400288D
:104EE00014BF9C46FFF79EFFC74600BF44F61473ED
:104EF000C0F6000344F6C874C0F60004FFF7B0FF24
:104F0000FFF798FF002840F60040C4F2010008BFF8
:104F1000CF4600BF4FF480470761876817F4804F82
:104F2000FBD044F60041C2F20001002551F82530C3
:104F30001E0E5FFAA3F8846814F4804F6FF30F34E9
:104F400004BF45F400751CE003EA1417B74213D000
:104F5000A845F0D095EA080598EA050895EA0805FD
:104F600051F825301E0E03EA1417B74204D05FFA39
:104F7000A3F54545DAD0F3E75FFA93F70FB13D4665
:104F8000D4E745F4C05525F48075AAF800504EF2D8
:104F90001001CEF200018F6847EA045742F8047B03
:104FA0004FF0804747F400470761876817F4004FC8
:104FB000FBD084688F6847EA045742F8047B4FF0BF
:104FC0000107CBF8007000BFE74600BF44F6F4735A
:104FD000C0F6000345F27804C0F60004FFF740FF76
:104FE000FFF728FF002840F60040C4F2010008BF88
:104FF000CF4600BF44F60041C2F20001002551F83F
:1050000025301E0E5FFAA3F8846803EA1417B7422E
:1050100013D0A845F8D095EA080598EA050895EA5E
:10502000080551F825301E0E03EA1417B74204D0C4
:105030005FFAA3F54545E2D0F3E75FFA93F70FB1C6
:105040003D46DCE745F4C05525F48075AAF80050CC
:105050004EF21001CEF200018F6847EA045742F881
:10506000047B84688F6847EA045742F8047B4FF05A
:105070000107CBF8007000BFE74600BF83688D686A
:1050800045EA0355A34218BF42F8045B84688D6863
:1050900045EA04559C4218BF42F8045B83688D685A
:1050A00045EA0355A34218BF42F8045B84688D6843
:1050B00045EA04559C4218BF42F8045B83688D683A
:1050C00045EA0355A34218BF42F8045B84688D6823
:1050D00045EA04559C4218BF42F8045BCEE700BF86
:1050E00083688D6845EA0355A34218BF42F8045B04
:1050F00084688D6845EA04559C4218BF42F8045BF9
:10510000EEE700BF83688D6845EA0355A34218BFE8
:1051100042F8045B1C46F5E783688D6845EA035551
:10512000A34218BF42F8045B1C4600BF00BF00BF8B
:10513000F2E700BFFEE700BFFEE700BFFEE700BFEB
:10514000FEE700BFFEE700BFFEE700BFFEE700BFCF
:10515000FEE700BFFEE700BFFEE700BFFEE700BFBF
:10516000FEE700BFFEE700BFFEE700BFFEE700BFAF
:10517000FEE700BFFEE700BFFEE700BFFEE700BF9F
:10518000FEE700BFFEE700BFFEE700BFFEE700BF8F
:10519000FEE700BFFEE700BFFEE700BFFEE700BF7F
:1051A000FEE700BFFEE700BFFEE700BFFEE700BF6F
:1051B000FEE700BFFEE700BFFEE700BFFEE700BF5F
:1051C000FEE700BFFEE700BFFEE700BFFEE700BF4F
:1051D000FEE700BFFEE700BFFEE700BFFEE700BF3F
:1051E000FEE700BFFEE700BFFEE700BFFEE700BF2F
:1051F000FEE700BFFEE700BFFEE700BFFEE700BF1F
:10520000FEE700BFFEE700BFFEE700BFFEE700BF0E
:10521000FEE700BFFEE700BF684620F007018D46AD
:105220000F4A01B50F48801A08D00F490B460844B1
:1052300013F8011B984202F8011BF9D10B4A0C4BE1
:105240009A4204D0002103F8011B9342FBD1094A82
:10525000094B9A6000F06CF8BDE801408546704744
:1052600000000020780100206C5600085402002045
:10527000780100200000000800ED00E0F29EC4AAC2
:10528000DFD8CA8FBDBEA9FE8399D1AEEB00000066
:1052900000010102010202030102020302030304EE
:1052A00000060000000200000006000000040000EC
:1052B00000060000000000000006000000060000DC
:1052C0002603530054004D006900630072006F0014
:1052D00065006C0065006300740072006F006E0072
:1052E0006900630073000000040309042E035300E7
:1052F00054004D0033003200200056006900720057
:105300007400750061006C00200043004F004D00E8
:10531000200050006F0072007400000012010002B3
:0E532000020000408304405700020102030116
:105330002DE9F843A748FEF76DFEFBF7A7F9FBF749
:1053400003FA4FF400314FF48033A34AC2F8101C23
:1053500000BF013BFCD14FF000729F4B9D4FC3F843
:10536000102C3846FFF79CFC08B98CE000BFD7F83A
:10537000B830042BFAD1FDF71FF940F22C20C2F20D
:105380000000EC460FF2080E80E8F05F002000BF3E
:1053900000BF00BF00BF00BF40F22C21C2F20001DD
:1053A00091E8F05FE54640F22A21C2F20001087060
:1053B0008A4C94F8AA20002A3CD0B4F8A800C0F384
:1053C0000C01002900F0E4804FF04046824D40057A
:1053D000D5F8043C23F4700343F48003C5F8043C7F
:1053E000C5F8106C00F10281D7F8D0007C4B84F82E
:1053F0004920984288BFC7F8D030D7F8D830D7F8BE
:10540000D40084F84830D7E933239B1A9B10754E9B
:10541000704D4180838000E030BF06233246012179
:105420002846FFF75BF80028F6D00023A4F8A83040
:1054300084F8AA300221684A684DDFF8AC81636CB9
:1054400005F14806C2F8101C2BB92846FAF7B2FF3E
:10545000636C002BF9D0216C01F03F02A25C112A91
:1054600000F29080002A00F08280013A102A7ED853
:10547000DFE802F06244403C7D3834302C282420A0
:105480001C1814100C0000BF00BFFCE7FEF768FDFD
:10549000636CD9E7FEF734FD636CD5E7FEF764F97A
:1054A000636CD1E7FCF750FC636CCDE7FEF7D4FBEF
:1054B000636CC9E7FEF756F8636CC5E7FEF756FA6A
:1054C000636CC1E7FEF732FB636CBDE7FDF758FF85
:1054D000636CB9E7FDF7B8F8636CB5E7FCF760FCFF
:1054E000636CB1E7FCF7C0FF636CADE7FDF76AF9E9
:1054F000636CA9E7FCF7F2FB636CA5E7042B1A4683
:1055000028BF04224FF4106C0220114401F03F0127
:105510009B1AC4E91013DFF8BC90A4F848C084F8C3
:105520004A0000E030BF0323324601214846FEF71F
:10553000D5FF0028F6D08BE7042B1A4628BF04229B
:10554000D7F8E000114401F03F019B1AC4E91013A1
:10555000DFF88090C0F8008000E030BF04233246BE
:1055600001214846FEF7BAFF0028F6D070E7042B69
:10557000184628BF04200A1802F03F021B1AC4E98B
:10558000102361E7F22AF2D1FDF716F8636C5BE7AE
:1055900083047FF54AAF104B4FF06630C3F80C1808
:1055A000D3F8001825464FF04431C3F80008D3F86B
:1055B0000008084EC3F8001805F8482F00E030BF77
:1055C00001232A4630461946FEF788FF0028F6D008
:1055D0002BE700BF000000200000014080010020F8
:1055E00000500020C8010020F57A01EAFBF73EFCDC
:1055F000B4F8A820D10509D508210023D7F8D00098
:10560000C4F89C10C7F8CC00A4F89830032194F893
:10561000A03084F8AA1084F8493094F8A43084F8B3
:10562000481084F84A30D4F89C30B4F8981084F8C4
:105630004B30D7F8D430074E074DDA80998000E020
:1056400030BF0823324601212846FEF747FF0028D5
:10565000F6D0EAE6C8010020000000200022024B3C
:0C566000C3E91022704700BF8001002049
:10566C00000000000000000000000000000000002E
:10567C00000000000000000000000000000000001E
:10568C00000000000000000000000000000000000E
:10569C0000000000000000000000000000000000FE
:1056AC0000000000000000000000000000000000EE
:1056BC0000000000000000000000000000000000DE
:1056CC0000000000000000000000000000000000CE
:1056DC0000000000000000000000000000000000BE
:1056EC0000000000000000000000000000000000AE
:1056FC00000000000000000000000000000000009E
:10570C00000000000000000000000000000000008D
:10571C00000000000000000000000000000000007D
:10572C00000000000000010000FF000000500020FD
:10573C0000500020C8010020FF000000004C002099
:10574C00C80100200807000034033000300030008E
:10575C0030003000300030003000300030003000BD
:10576C0030003000300030003000300030003000AD
:10577C003000300030003000300000000902000022
:10578C00020100C0320904000001020201000524DC
:10579C000010010524010001042402020524060066
:1057AC0001070582030800FF09040100020A00003A
:1057BC0000070503024000000705810240000000BD
:1057CC008025000000000800E8520008C0520008C4
:0857DC00EC520008E800002077
:0457E4005D56000806
:1058C40000000000000000000000000000000000D4
:1058D40000000000000000000000000000000000C4
:1058E40000000000000000000000000000000000B4
:1058F40000000000000000000000000000000000A4
:045B0400000000009D
:040000050800521984
:00000001FF
